:100000000C9428010C9459010C9459010C94590139
:100010000C9459010C9459010C9459010C945901F8
:100020000C9459010C9459010C9459010C945901E8
:100030000C9459010C9459010C9459010C945901D8
:100040000C9459010C9459010C9459010C945901C8
:100050000C9459010C9459010C9459010C948F0281
:100060000C9459010C9403030C94D9020C9459017B
:100070000C9459010C9459010C9459010C94590198
:100080000C9459010C9459010C9459010C94590188
:100090000C9459010C9459010C9459010C94590178
:1000A0000C9459010C9459010C9459010C94590168
:1000B0000C9459010C9459010C9459010C94590158
:1000C0000C9459010C9459010C9459010C94590148
:1000D0000C9459010C9459010C9459010C94590138
:1000E0000C9459010C94CA040C94A7040C945B0161
:1000F0000C94AB040C9488010C9497010C94750437
:100100000C94E8040C947A040C94E2040C94DE043D
:100110000C943E020C94BC040C94B2040C94AF04F6
:100120000C94C2040C94C6040C94A3040C94D40440
:100130000C94B8040C94D8040C94AB010C94B90141
:100140000C94F1010C94D00400002100240027003D
:100150002A002D00300033000101000004010701D6
:100160000A0100002200250028002B002E0031008B
:10017000340002010000050108010B010505050519
:10018000070508080808020202020A0A080804040F
:10019000040401010101010101010303030303033D
:1001A0000303040707070C0C0C0C0C0C0C0C0202CC
:1001B000020206060606060606060B0B0B0B0B0BC9
:1001C0000B0B010210202008081020401020408056
:1001D000020102010804020101020408102040800B
:1001E0008040201008040201800402018040201099
:1001F00008040201080402010102040810204080E2
:10020000010204081020408000000A0B02090C0DB6
:100210000E080703040100000000000000000000B9
:1002200000000000000000000000000000000000CE
:10023000000000001211100000000000000000008B
:100240000000000000000000000000000000E804C2
:1002500011241FBECFEFD1E2DEBFCDBF00E00CBF47
:1002600012E0A0E0B2E0ECEEFAE000E00BBF02C06A
:1002700007900D92A231B107D9F722E0A2E1B2E0D6
:1002800001C01D92AA3BB207E1F711E0C8E2D1E03C
:1002900000E006C021970109802FFE010E9465053C
:1002A000C732D10780E00807A9F70E9439030C94F0
:1002B00074050C940000AF92BF92CF92DF92EF9240
:1002C000FF920F931F93CF93DF936C017B018B0100
:1002D000040F151FEB015E01AE18BF08C017D10750
:1002E00059F06991D601ED91FC910190F081E02DDA
:1002F000C6011995892B79F7C501DF91CF911F911F
:100300000F91FF90EF90DF90CF90BF90AF90089546
:10031000FC01538D448D252F30E0842F90E0821B0B
:10032000930B541710F0CF96089501970895FC0190
:10033000918D828D981761F0A28DAE0FBF2FB11DE8
:100340005D968C91928D9F5F9F73928F90E0089540
:100350008FEF9FEF0895FC01918D828D981731F0FA
:10036000828DE80FF11D858D90E008958FEF9FEF4E
:100370000895FC01918D228D892F90E0805C9F4F24
:10038000821B91098F739927089582E192E00E9460
:10039000B90121E0892B09F420E0822F0895FC01A6
:1003A000A48DA80FB92FB11DA35ABF4F2C91848DD6
:1003B00090E001968F739927848FA689B7892C9333
:1003C000A089B1898C91837080648C93938D848D86
:1003D000981306C00288F389E02D80818F7D808389
:1003E0000895EF92FF920F931F93CF93DF93EC0149
:1003F00081E0888F9B8D8C8D98131AC0E889F989CC
:10040000808185FF15C09FB7F894EE89FF896083CE
:10041000E889F98980818370806480839FBF81E04F
:1004200090E0DF91CF911F910F91FF90EF90089591
:10043000F62E0B8D10E00F5F1F4F0F731127E02E6C
:100440008C8D8E110CC00FB607FCFACFE889F989A4
:10045000808185FFF5CFCE010E94CF01F1CFEB8DDA
:10046000EC0FFD2FF11DE35AFF4FF0829FB7F89478
:100470000B8FEA89FB8980818062CFCFCF93DF9396
:10048000EC01888D8823B9F0AA89BB89E889F989AC
:100490008C9185FD03C0808186FD0DC00FB607FCE1
:1004A000F7CF8C9185FFF2CF808185FFEDCFCE0114
:1004B0000E94CF01E9CFDF91CF91089580E090E0D5
:1004C000892B29F00E94C50181110E94000080E063
:1004D00090E0892B49F080E090E0892B29F00E9480
:1004E000000081110E94000080E090E0892B49F01B
:1004F00080E090E0892B29F00E94000081110E9489
:10050000000080E090E0892B49F080E090E0892BAA
:1005100029F00E94000081110C94000008951F92A0
:100520000F920FB60F9211242F933F938F939F93A7
:10053000AF93BF938091B6029091B702A091B80299
:10054000B091B9023091B50223E0230F2D3758F551
:100550000196A11DB11D2093B5028093B602909320
:10056000B702A093B802B093B9028091B102909102
:10057000B202A091B302B091B4020196A11DB11DC7
:100580008093B1029093B202A093B302B093B402ED
:10059000BF91AF919F918F913F912F910F900FBE7F
:1005A0000F901F90189526E8230F0296A11DB11DEC
:1005B000D2CF1F920F920FB60F9211240BB60F924B
:1005C0002F933F934F935F936F937F938F939F935B
:1005D000AF93BF93EF93FF9382E192E00E94CF012C
:1005E000FF91EF91BF91AF919F918F917F916F910B
:1005F0005F914F913F912F910F900BBE0F900FBEC7
:100600000F901F9018951F920F920FB60F92112402
:100610000BB60F922F938F939F93EF93FF93E091DD
:100620002202F09123028081E0912802F0912902B8
:1006300082FD1DC0908180912B028F5F8F7320916E
:100640002C02821741F0E0912B02F0E0EE5EFD4FAC
:10065000958F80932B02FF91EF919F918F912F9116
:100660000F900BBE0F900FBE0F901F9018958081BA
:10067000F2CF789484B5826084BD84B5816084BDF6
:1006800085B5826085BD85B5816085BD80916E0030
:10069000816080936E001092810080918100826061
:1006A000809381008091810081608093810080919E
:1006B00080008160809380008091B100846080938D
:1006C000B1008091B00081608093B0008091910072
:1006D000826080939100809191008160809391006D
:1006E000809190008160809390008091A100826051
:1006F0008093A1008091A10081608093A1008091EE
:10070000A00081608093A00080912101826080938D
:10071000210180912101816080932101809120013C
:1007200081608093200180917A00846080937A00B8
:1007300080917A00826080937A0080917A00816053
:1007400080937A0080917A00806880937A0010927A
:10075000C100E0912202F091230282E08083E091C7
:100760001E02F0911F021082E0912002F0912102FE
:100770008FEC808310922A02E0912602F0912702EA
:1007800086E08083E0912402F091250280818061DF
:100790008083E0912402F09125028081886080832B
:1007A000E0912402F0912502808180688083E091AD
:1007B0002402F091250280818F7D8083CDECD1E0F1
:1007C000FE01249107E811E0F8018491882399F053
:1007D00090E0880F991FFC01E85BFE4FA591B49152
:1007E000FC01EE59FE4F859194918FB7F8949C913E
:1007F000292B2C938FBFE8EFF1E02491E2EBF1E09D
:1008000084918823C9F090E0880F991FFC01E85B70
:10081000FE4FA591B491FC01EE59FE4F45915491C4
:100820009FB7F8948C91E22FE0958E238C93DA0198
:100830008C91E823EC939FBF90E4D92E23E1E22E24
:1008400022E0F22E88248A9433E0932EA12CB12C3E
:1008500080917B00877F80937B00D0927C00809189
:100860007A00806480937A0080917A0086FDFCCFC4
:1008700080917800909179009093B0028093AF02BC
:1008800082E192E00E94B901181619060CF043C0EB
:1008900082E192E00E949701382FF7018491FE01D6
:1008A0002491F8019491992309F435C0882311F11A
:1008B00081508231F8F4E82FF0E08827ED59FB4FA2
:1008C0008F4F0C946505AB04AF047504A304A70413
:1008D0007A04B204B804BC04C204C604CA04D00436
:1008E000D4047A04D804DE04E204809180008F7777
:1008F00080938000E92FF0E0EE0FFF1FEE59FE4FCE
:10090000A591B4918FB7F8949C9131115FC0209557
:1009100029232C938FBFA091AF02B091B00224EB9A
:1009200030E00E946D05A50194010E9415052093F9
:10093000AF023093B002622F82E192E00E94F10197
:100940000E945E0285CF809180008F7DD1CF809103
:100950008000877FCDCF84B58F7784BDCBCF84B522
:100960008F7DFBCF8091B0008F778093B000C2CF96
:100970008091B0008F7DF9CF809190008F77809328
:100980009000B8CF809190008F7DF9CF809190003A
:10099000877FF5CF8091A0008F778093A000AACFAA
:1009A0008091A0008F7DF9CF8091A000877FF5CF47
:1009B000809120018F77809320019CCF809120012E
:1009C0008F7DF9CF80912001877FF5CF292BA1CF93
:1009D000E2E1F2E01382128288EE93E0A0E0B0E060
:1009E00084839583A683B78384E092E09183808398
:1009F00085EC90E09587848784EC90E097878687E4
:100A000080EC90E0918B808B81EC90E0938B828BDB
:100A100082EC90E0958B848B86EC90E0978B868BB4
:100A2000118E128E138E148E0895052E97FB1EF4D0
:100A300000940E942C0557FD07D00E94340507FC46
:100A400003D04EF40C942C0550954095309521958B
:100A50003F4F4F4F5F4F08959095809570956195EA
:100A60007F4F8F4F9F4F0895A1E21A2EAA1BBB1BE9
:100A7000FD010DC0AA1FBB1FEE1FFF1FA217B3076A
:100A8000E407F50720F0A21BB30BE40BF50B661F80
:100A9000771F881F991F1A9469F760957095809544
:100AA00090959B01AC01BD01CF010895A29FB001BB
:100AB000B39FC001A39F700D811D1124911DB29F92
:100AC000700D811D1124911D0895EE0FFF1F881FC9
:100AD0008BBF0790F691E02D19940E945605B7FF41
:0C0AE0000895821B930B0895F894FFCF3B
:100AEC0000000000F1015B0188013E02B901970191
:020AFC00AB014C
:00000001FF
