:100000000C9462000C948A000C948A000C948A0070
:100010000C948A000C948A000C948A000C948A0038
:100020000C948A000C948A000C948A000C940E03A1
:100030000C948A000C948A000C948A000C948A0018
:100040000C946C020C948A000C94DC020C94B602A2
:100050000C948A000C948A000C948A000C948A00F8
:100060000C948A000C948A000000000024002700F1
:100070002A000000000023002600290000000000E4
:10008000250028002B0004040404040404040202D4
:100090000202020203030303030301020408102007
:1000A0004080010204081020010204081020000012
:1000B0000008000201000003040700000000000027
:1000C0000000CA0311241FBECFEFD8E0DEBFCDBFB2
:1000D00011E0A0E0B1E0EAE0FCE002C005900D9282
:1000E000A431B107D9F721E0A4E1B1E001C01D922C
:1000F000A73EB207E1F710E0C2E6D0E004C02197C6
:10010000FE010E94FD05C136D107C9F70E942704F0
:100110000C9403060C940000CF92DF92EF92FF92B2
:10012000DC01A03282E0B807D4F5A53BB10514F09C
:10013000A4EBB0E04091E50128E830E0241B310950
:1001400047FD3395220F331F220F331F6901330FF1
:10015000EE08FF084091E60128E532E0241B310952
:1001600047FD3395220F331F220F331F032E000C40
:10017000440B550B2C193D094E095F09B7FF02C00E
:10018000B0E0A0E00E94B80524EB30E040E050E091
:100190000E948E05C20ED31EE41EF51ED601E0910C
:1001A000E401EC3080F52091E50188E890E0821BC5
:1001B000910927FD9395880F991F880F991FA817FC
:1001C000B90784F02091E60188E592E0821B91094D
:1001D00027FD9395880F991F880F991FA817B907B6
:1001E0000CF4CD010297880F991F4FB7F8942E2F6A
:1001F00030E0F901EE0FFF1FE20FF31FE154FE4F55
:10020000928381834FBFFF90EF90DF90CF9008954E
:10021000833081F028F4813099F08230A9F008957C
:100220008730A9F08830C9F08430B1F48091800023
:100230008F7D03C0809180008F7780938000089528
:1002400084B58F7784BD089584B58F7DFBCF809171
:10025000B0008F778093B00008958091B0008F7DBB
:10026000F9CF1F93CF93DF93282F30E0F901E255A8
:10027000FF4F8491F901E656FF4FD491F901EA57F7
:10028000FF4FC491CC23A9F0162F81110E940801C1
:10029000EC2FF0E0EE0FFF1FE458FF4FA591B49153
:1002A0008FB7F894EC91111108C0D095DE23DC9340
:1002B0008FBFDF91CF911F910895DE2BF8CFAF92C2
:1002C000BF92CF92DF92EF92FF920F931F93CF9343
:1002D000DF936C017B018B01040F151FEB015E01A5
:1002E000AE18BF08C017D10759F06991D601ED913A
:1002F000FC910190F081E02DC6010995892B79F7D9
:10030000C501DF91CF911F910F91FF90EF90DF908A
:10031000CF90BF90AF900895FC01538D448D252F51
:1003200030E0842F90E0821B930B541710F0CF968F
:10033000089501970895FC01918D828D981761F0C1
:10034000A28DAE0FBF2FB11D5D968C91928D9F5FD8
:100350009F73928F90E008958FEF9FEF0895FC01B7
:10036000918D828D981731F0828DE80FF11D858D6A
:1003700090E008958FEF9FEF0895FC01918D228DFD
:10038000892F90E0805C9F4F821B91098F73992782
:10039000089582E291E00E94BD0121E0892B09F4D9
:1003A00020E0822F089580E090E0892B29F00E94C0
:1003B000C90181110C9400000895FC01A48DA80FBF
:1003C000B92FB11DA35ABF4F2C91848D90E0019697
:1003D0008F739927848FA689B7892C93A089B189B7
:1003E0008C91837080648C93938D848D981306C058
:1003F0000288F389E02D80818F7D80830895EF92BC
:10040000FF920F931F93CF93DF93EC0181E0888FCE
:100410009B8D8C8D98131AC0E889F989808185FF9E
:1004200015C09FB7F894EE89FF896083E889F98940
:1004300080818370806480839FBF81E090E0DF9142
:10044000CF911F910F91FF90EF900895F62E0B8D95
:1004500010E00F5F1F4F0F731127E02E8C8D8E1150
:100460000CC00FB607FCFACFE889F989808185FFB7
:10047000F5CFCE010E94DD01F1CFEB8DEC0FFD2F0A
:10048000F11DE35AFF4FF0829FB7F8940B8FEA8972
:10049000FB8980818062CFCFCF93DF93EC01888D81
:1004A0008823B9F0AA89BB89E889F9898C9185FDEF
:1004B00003C0808186FD0DC00FB607FCF7CF8C917D
:1004C00085FFF2CF808185FFEDCFCE010E94DD0157
:1004D000E9CFDF91CF9108951F920F920FB60F923F
:1004E00011242F933F938F939F93AF93BF9380914A
:1004F0001E0190911F01A0912001B0912101309126
:100500001D0123E0230F2D3758F50196A11DB11DC4
:1005100020931D0180931E0190931F01A093200141
:10052000B09321018091190190911A01A0911B01B2
:10053000B0911C010196A11DB11D809319019093EA
:100540001A01A0931B01B0931C01BF91AF919F9121
:100550008F913F912F910F900FBE0F901F90189584
:1005600026E8230F0296A11DB11DD2CF1F920F9234
:100570000FB60F9211242F933F934F935F936F9376
:100580007F938F939F93AF93BF93EF93FF9382E2F9
:1005900091E00E94DD01FF91EF91BF91AF919F919A
:1005A0008F917F916F915F914F913F912F910F901C
:1005B0000FBE0F901F9018951F920F920FB60F92BB
:1005C00011242F938F939F93EF93FF93E091320128
:1005D000F09133018081E0913801F091390182FD81
:1005E0001BC0908180913B018F5F8F7320913C01F4
:1005F000821741F0E0913B01F0E0EE5DFE4F958FF8
:1006000080933B01FF91EF919F918F912F910F90DC
:100610000FBE0F901F9018958081F4CF1F920F92FC
:100620000FB60F9211242F933F934F935F936F93C5
:100630007F938F939F93AF93BF93CF93DF93EF936A
:10064000FF9380911401C091E301D0E087FF24C0A3
:100650001092850010928400809114018F5F809326
:10066000140180911401082E000C990B8C179D0722
:1006700024F4809114018C30C4F180918400909115
:100680008500049680349C4908F47AC080918400E7
:1006900090918500049676C080911401082E000C7C
:1006A000990B8C179D07C4F6E09114018E2FEE0F65
:1006B000990BFC01EE0FFF1FE80FF91FE154FE4FED
:1006C000808186FFC9CFE09114018E2FEE0F990B28
:1006D000FC01EE0FFF1FE80FF91FE154FE4F808170
:1006E00060E08F730E943101B7CF20918400309178
:1006F0008500E09114018E2FEE0F990BFC01EE0F97
:10070000FF1FE80FF91FE154FE4F81819281820F94
:10071000931F9093890080938800E09114018E2F9D
:10072000EE0F990BFC01EE0FFF1FE80FF91FE154CC
:10073000FE4F808186FF11C0E09114018E2FEE0FD5
:10074000990BFC01EE0FFF1FE80FF91FE154FE4F5C
:10075000808161E08F730E943101FF91EF91DF9101
:10076000CF91BF91AF919F918F917F916F915F9149
:100770004F913F912F910F900FBE0F901F901895A2
:1007800080E49CE990938900809388008FEF8093A8
:100790001401E3CF109225011092240188EE93E01A
:1007A000A0E0B0E08093260190932701A093280158
:1007B000B093290186E091E0909323018093220178
:1007C00085EC90E090932F0180932E0184EC90E0D3
:1007D000909331018093300180EC90E0909333014D
:1007E0008093320181EC90E0909335018093340145
:1007F00082EC90E0909337018093360186EC90E094
:10080000909339018093380110923B0110923C0182
:1008100010923D0110923E018091E3018C3098F4DA
:1008200091E0980F9093E3018093E40190E0FC0144
:10083000EE0FFF1FE80FF91FE154FE4F88EB9BE01E
:100840009283818308958FEF8093E40108957894D3
:1008500084B5826084BD84B5816084BD85B58260C5
:1008600085BD85B5816085BD80916E008160809376
:100870006E001092810080918100826080938100DF
:1008800080918100816080938100809180008160EF
:10089000809380008091B10084608093B10080914A
:1008A000B00081608093B00080917A008460809372
:1008B0007A0080917A00826080937A0080917A0039
:1008C000816080937A0080917A00806880937A00BA
:1008D0001092C100E0913201F091330182E08083F7
:1008E000E0912E01F0912F011082E0913001F09102
:1008F00031018FEC808310923A01E0913601F09142
:10090000370186E08083E0913401F09135018081E8
:1009100080618083E0913401F091350180818860AD
:100920008083E0913401F09135018081806880837B
:10093000E0913401F091350180818F7D8083CFE992
:10094000D0E0FE0124910BE810E0F80184918823A7
:10095000C9F090E0880F991FFC01E859FF4FA5915D
:10096000B491FC01E458FF4F459154919FB7F8941E
:100970003C91822F809583238C93FA018081282BD0
:1009800020839FBF8091E4018C3008F068C0E3EAC7
:10099000F0E02491EFE8F0E08491882399F090E072
:1009A000880F991FFC01E859FF4FA591B491FC01F4
:1009B000E458FF4F859194918FB7F894EC91E22B16
:1009C000EC938FBF8091E401282F30E0F901EE0F06
:1009D000FF1FE20FF31FE154FE4F9081907C99605E
:1009E00090831092E5011092E6012CE0622F0E94A4
:1009F000F105829FB001112430E020E0AB01420FED
:100A0000531FFA01EE0FFF1FE40FF51FE154FE4FD5
:100A1000908196FD16C02F5F3F4F2C30310571F746
:100A200081110FC01092800082E0809381001092AB
:100A3000850010928400B19A80916F00826080934B
:100A40006F00E091E4018E2F90E0FC01EE0FFF1F9C
:100A5000E80FF91FE154FE4F80818064808380910C
:100A60001501909116010E948C0093EBE92E90E005
:100A7000F92E20E0C22E20E0D22EF7018491FE0153
:100A8000A490F801B490B11035C08091000190910C
:100A900001018130910509F03CC0909318018093C9
:100AA0001701109201011092000182E291E00E9470
:100AB000BD01892B71F082E291E00E949B0190932D
:100AC0001601809315016091170182E291E00E9466
:100AD000FF0180911501909116010E948C00C114B4
:100AE000D10459F20E94C901882309F4C6CF0E949B
:100AF0000000C3CF81110E940801EB2DF0E0EE0F42
:100B0000FF1FEE58FF4FA591B4918C91A82209F4D4
:100B1000BCCF1092180110921701C7CF052E97FB7A
:100B20001EF400940E94A50557FD07D00E94C00541
:100B300007FC03D04EF40C94A505509540953095D4
:100B400021953F4F4F4F5F4F089590958095709539
:100B500061957F4F8F4F9F4F08950E94E205A59F9B
:100B6000900DB49F900DA49F800D911D11240895A8
:100B7000B7FF0C94AD050E94AD05821B930B089541
:100B8000A1E21A2EAA1BBB1BFD010DC0AA1FBB1F91
:100B9000EE1FFF1FA217B307E407F50720F0A21B03
:100BA000B30BE40BF50B661F771F881F991F1A9470
:100BB00069F760957095809590959B01AC01BD019A
:100BC000CF010895A29FB001B39FC001A39F700DF4
:100BD000811D1124911DB29F700D811D1124911D45
:100BE0000895991B79E004C0991F961708F0961B89
:100BF000881F7A95C9F780950895EE0FFF1F05901D
:0A0C0000F491E02D0994F894FFCF61
:100C0A00010000000000FF015F018C014C02BD01E0
:040C1A009B01AF018A
:00000001FF
