:100000000C945D000C9485000C9485000C94850084
:100010000C9485000C9485000C9485000C9485004C
:100020000C9485000C9485000C9485000C9485003C
:100030000C9485000C9485000C9485000C9485002C
:100040000C9494010C9485000C9404020C94DE0131
:100050000C9485000C9485000C9485000C9485000C
:100060000C9485000C9485000000000024002700FB
:100070002A0000000000250028002B0004040404CE
:100080000404040402020202020203030303030342
:10009000010204081020408001020408102001021F
:1000A00004081020000000080002010000030407FB
:1000B0000000000000000000830311241FBECFEFEA
:1000C000D8E0DEBFCDBF11E0A0E0B1E0EEE1F8E0A6
:1000D00002C005900D92A231B107D9F721E0A2E14B
:1000E000B1E001C01D92AC3BB207E1F710E0CDE5F5
:1000F000D0E004C02197FE010E940704CC35D1074F
:10010000C9F70E9436020C940D040C940000AF92C3
:10011000BF92CF92DF92EF92FF920F931F93CF93F4
:10012000DF936C017B018B01040F151FEB015E0156
:10013000AE18BF08C017D10759F06991D601ED91EB
:10014000FC910190F081E02DC6010995892B79F78A
:10015000C501DF91CF911F910F91FF90EF90DF903C
:10016000CF90BF90AF900895FC01538D448D252F03
:1001700030E0842F90E0821B930B541710F0CF9641
:10018000089501970895FC01918D828D981761F073
:10019000A28DAE0FBF2FB11D5D968C91928D9F5F8A
:1001A0009F73928F90E008958FEF9FEF0895FC0169
:1001B000918D828D981731F0828DE80FF11D858D1C
:1001C00090E008958FEF9FEF0895FC01918D228DAF
:1001D000892F90E0805C9F4F821B91098F73992734
:1001E000089584E191E00E94E50021E0892B09F463
:1001F00020E0822F089580E090E0892B29F00E9472
:10020000F10081110C9400000895FC01A48DA80F49
:10021000B92FB11DA35ABF4F2C91848D90E0019648
:100220008F739927848FA689B7892C93A089B18968
:100230008C91837080648C93938D848D981306C009
:100240000288F389E02D80818F7D80830895EF926D
:10025000FF920F931F93CF93DF93EC0181E0888F80
:100260009B8D8C8D98131AC0E889F989808185FF50
:1002700015C09FB7F894EE89FF896083E889F989F2
:1002800080818370806480839FBF81E090E0DF91F4
:10029000CF911F910F91FF90EF900895F62E0B8D47
:1002A00010E00F5F1F4F0F731127E02E8C8D8E1102
:1002B0000CC00FB607FCFACFE889F989808185FF69
:1002C000F5CFCE010E940501F1CFEB8DEC0FFD2F94
:1002D000F11DE35AFF4FF0829FB7F8940B8FEA8924
:1002E000FB8980818062CFCFCF93DF93EC01888D33
:1002F0008823B9F0AA89BB89E889F9898C9185FDA1
:1003000003C0808186FD0DC00FB607FCF7CF8C912E
:1003100085FFF2CF808185FFEDCFCE010E940501E0
:10032000E9CFDF91CF9108951F920F920FB60F92F0
:1003300011242F933F938F939F93AF93BF938091FB
:10034000B8019091B901A091BA01B091BB0130916F
:10035000B70123E0230F2D3758F50196A11DB11DDC
:100360002093B7018093B8019093B901A093BA018B
:10037000B093BB018091B3019091B401A091B501FC
:10038000B091B6010196A11DB11D8093B301909368
:10039000B401A093B501B093B601BF91AF919F9105
:1003A0008F913F912F910F900FBE0F901F90189536
:1003B00026E8230F0296A11DB11DD2CF1F920F92E6
:1003C0000FB60F9211242F933F934F935F936F9328
:1003D0007F938F939F93AF93BF93EF93FF9384E1AA
:1003E00091E00E940501FF91EF91BF91AF919F9124
:1003F0008F917F916F915F914F913F912F910F90CE
:100400000FBE0F901F9018951F920F920FB60F926C
:1004100011242F938F939F93EF93FF93E0912401E7
:10042000F09125018081E0912A01F0912B0182FD5C
:100430001BC0908180912D018F5F8F7320912E01C1
:10044000821741F0E0912D01F0E0EC5EFE4F958FB8
:1004500080932D01FF91EF919F918F912F910F909C
:100460000FBE0F901F9018958081F4CF789484B5BB
:10047000826084BD84B5816084BD85B5826085BDA0
:1004800085B5816085BD80916E00816080936E002E
:100490001092810080918100826080938100809120
:1004A00081008160809381008091800081608093D1
:1004B00080008091B10084608093B1008091B00091
:1004C00081608093B00080917A00846080937A008C
:1004D00080917A00826080937A0080917A008160B6
:1004E00080937A0080917A00806880937A001092DD
:1004F000C100E0912401F091250182E08083E09128
:100500002001F09121011082E0912201F09123015C
:100510008FEC808310922C01E0912801F091290149
:1005200086E08083E0912601F0912701808180613F
:100530008083E0912601F09127018081886080838B
:10054000E0912601F0912701808180688083E0910D
:100550002601F091270180818F7D8083CCE9D0E056
:10056000FE01249108E810E0F8018491882399F0B5
:1005700090E0880F991FFC01E859FF4FA591B491B5
:10058000FC01EE58FF4F859194918FB7F8949C91A0
:10059000292B2C938FBFEEE9F0E02491EAE8F0E0FC
:1005A00084918823C9F090E0880F991FFC01E859D5
:1005B000FF4FA591B491FC01EE58FF4F4591549126
:1005C0009FB7F8948C91E22FE0958E238C93DA01FB
:1005D0008C91E823EC939FBF20E4922E44244A940C
:1005E00033E0532E612C712C40EBC42E40E0D42E0E
:1005F00050E0A52E50E0B52E90927C0080917A00BC
:10060000806480937A0080917A0086FDFCCFE09030
:100610007800F0907900F092B201E092B10184E1AB
:1006200091E00E94E500892BD1F084E191E00E94E5
:10063000C300909313018093120124EB30E0D701A3
:100640000E940004A30192010E94B0032093B10113
:100650003093B201622F84E191E00E942701F601FC
:100660009491FE018491F80134913323E1F02091BB
:100670001201992339F0933061F108F5913079F145
:10068000923089F1E32FF0E0EE0FFF1FEE58FF4F9D
:10069000A591B4919FB7F894211132C02C91809507
:1006A00082238C939FBFA114B10409F4A5CF0E94AB
:1006B000F100882309F4A0CF0E9400009DCF97305D
:1006C000A9F09830C9F09430E9F6909180009F7DB0
:1006D00003C0909180009F7790938000D3CF94B512
:1006E0009F7794BDCFCF94B59F7DFBCF9091B00005
:1006F0009F779093B000C6CF9091B0009F7DF9CFC7
:100700002C91822BCECFE4E1F1E01382128288EEAD
:1007100093E0A0E0B0E084839583A683B78384E070
:1007200091E09183808385EC90E09587848784ECC9
:1007300090E09787868780EC90E0918B808B81ECAE
:1007400090E0938B828B82EC90E0958B848B86EC8F
:1007500090E0978B868B118E128E138E148E0895D7
:10076000052E97FB1EF400940E94C70357FD07D087
:100770000E94CF0307FC03D04EF40C94C70350959E
:100780004095309521953F4F4F4F5F4F089590957D
:100790008095709561957F4F8F4F9F4F0895A1E28F
:1007A0001A2EAA1BBB1BFD010DC0AA1FBB1FEE1FEB
:1007B000FF1FA217B307E407F50720F0A21BB30B36
:1007C000E40BF50B661F771F881F991F1A9469F7B2
:1007D00060957095809590959B01AC01BD01CF010E
:1007E0000895A29FB001B39FC001A39F700D811D0A
:1007F0001124911DB29F700D811D1124911D08952A
:100800000E94F103B7FF0895821B930B0895EE0F2A
:0E081000FF1F0590F491E02D0994F894FFCF9E
:10081E000000000027018700B4007401E500C3004A
:02082E00D700F1
:00000001FF
