:100000000C9435010C9466010C9466010C94660105
:100010000C9466010C9466010C9466010C946601C4
:100020000C9466010C9466010C9466010C946601B4
:100030000C9466010C9466010C9466010C946601A4
:100040000C9466010C94C0050C9466010C94660136
:100050000C9466010C9466010C9466010C948C045B
:100060000C9466010C9400050C94D6040C94660163
:100070000C9466010C9466010C9466010C94660164
:100080000C9492050C9466010C9466010C94660124
:100090000C9466010C9466010C9466010C94660144
:1000A0000C9466010C9466010C9464050C94660132
:1000B0000C9466010C9466010C9466010C94360550
:1000C0000C9466010C9466010C9466010C94660114
:1000D0000C9466010C9466010C9466010C94660104
:1000E0000C9466010C9414020C94CB020C94100234
:1000F0000C9421020C9408020C942B020C943D02E7
:100100000C9435020C94EE050C9434030C944202CA
:100110000C9439020C9447020C9427020C949E0212
:100120000C942F020C9402020C94EE020C941D020B
:100130000C940C020C9443020C9481030C94DA028C
:100140000C9417020C94FC020000210024002700EC
:100150002A002D00300033000101000004010701D6
:100160000A01000020002300260029002C002F0097
:100170003200000100000301060109010000220015
:10018000250028002B002E00310034000201000061
:10019000050108010B010505050507050808080804
:1001A000020202020A0A080804040404010101010F
:1001B000010101010303030303030303040707070A
:1001C0000C0C0C0C0C0C0C0C0202020206060606AF
:1001D000060606060B0B0B0B0B0B0B0B010210207C
:1001E000200808102040102040800201020108046D
:1001F0000201010204081020408080402010080401
:100200000201800402018040201008040201080459
:10021000020101020408102040800102040810209D
:10022000408000000A0B02090C0D0E0807030401B0
:1002300000000000000000000000000000000000BE
:10024000000000000000000000000000000012118B
:10025000100000000000000000000000000000008E
:100260000000000000000000EE0511241FBECFEFCB
:10027000D1E2DEBFCDBF00E00CBF12E0A0E0B2E0F3
:10028000E4E5F1E100E00BBF02C007900D92A83158
:10029000B107D9F723E0A8E1B2E001C01D92A8356B
:1002A000B207E1F711E0C5E3D1E000E006C0219715
:1002B0000109802FFE010E94A008C433D10780E00D
:1002C0000807A9F70E944B060C94A8080C9400009C
:1002D000CF92DF92EF92FF92DC01A03282E0B8076A
:1002E000D4F5A53BB10514F0A4EBB0E04091560362
:1002F00028E830E0241B310947FD3395220F331FD6
:10030000220F331F6901330FEE08FF084091570396
:1003100028E532E0241B310947FD3395220F331FB6
:10032000220F331F032E000C440B550B2C193D09D3
:100330004E095F09B7FF02C0B0E0A0E00E945B0871
:1003400024EB30E040E050E00E943108C20ED31EA2
:10035000E41EF51ED601E0915503E03380F52091AF
:10036000560388E890E0821B910927FD9395880F3A
:10037000991F880F991FA817B90784F02091570378
:1003800088E592E0821B910927FD9395880F991FBC
:10039000880F991FA817B9070CF4CD010297880F91
:1003A000991F4FB7F8942E2F30E0F901EE0FFF1F81
:1003B000E20FF31FEC53FD4F928381834FBFFF90F9
:1003C000EF90DF90CF9008958150823108F05AC0AD
:1003D000E82FF0E08827E051FE4F8F4F0C94A008E3
:1003E00010021402020208020C02420217021D024D
:1003F000210227022B022F023502390242023D025E
:1004000043024702809180008F7780938000089597
:10041000809180008F7DF9CF80918000877FF5CF1C
:1004200084B58F7784BD089584B58F7DFBCF80918F
:10043000B0008F778093B00008958091B0008F7DD9
:10044000F9CF809190008F778093900008958091EC
:1004500090008F7DF9CF80919000877FF5CF8091BC
:10046000A0008F778093A00008958091A0008F7DD9
:10047000F9CF8091A000877FF5CF809120018F7701
:10048000809320010895809120018F7DF9CF809184
:100490002001877FF5CF1F93CF93DF93282F30E084
:1004A000F901EE5DFD4F8491F901E452FE4FD491C4
:1004B000F901EA56FE4FC491CC23A9F0162F811101
:1004C0000E94E401EC2FF0E0EE0FFF1FE458FE4F16
:1004D000A591B4918FB7F894EC91111108C0D09503
:1004E000DE23DC938FBFDF91CF911F910895DE2B28
:1004F000F8CF3FB7F8948091230290912402A09105
:100500002502B091260226B5A89B05C02F3F19F001
:100510000196A11DB11D3FBFBA2FA92F982F882783
:10052000BC01CD01620F711D811D911D42E0660F5E
:10053000771F881F991F4A95D1F70895AF92BF92F0
:10054000CF92DF92EF92FF920F931F93CF93DF939F
:100550006C017B018B01040F151FEB015E01AE18CE
:10056000BF08C017D10759F06991D601ED91FC91F0
:100570000190F081E02DC6011995892B79F7C5010D
:10058000DF91CF911F910F91FF90EF90DF90CF906F
:10059000BF90AF900895FC01538D448D252F30E01E
:1005A000842F90E0821B930B541710F0CF96089580
:1005B00001970895FC01918D828D981761F0A28DAD
:1005C000AE0FBF2FB11D5D968C91928D9F5F9F7373
:1005D000928F90E008958FEF9FEF0895FC01918D29
:1005E000828D981731F0828DE80FF11D858D90E096
:1005F00008958FEF9FEF0895FC01918D228D892F33
:1006000090E0805C9F4F821B91098F73992708951A
:1006100087E292E00E94FC0221E0892B09F420E0AD
:10062000822F0895FC01A48DA80FB92FB11DA35AE4
:10063000BF4F2C91848D90E001968F739927848F02
:10064000A689B7892C93A089B1898C918370806425
:100650008C93938D848D981306C00288F389E02DC6
:1006600080818F7D80830895EF92FF920F931F9377
:10067000CF93DF93EC0181E0888F9B8D8C8D981355
:100680001AC0E889F989808185FF15C09FB7F89461
:10069000EE89FF896083E889F989808183708064AD
:1006A00080839FBF81E090E0DF91CF911F910F91F8
:1006B000FF90EF900895F62E0B8D10E00F5F1F4F07
:1006C0000F731127E02E8C8D8E110CC00FB607FC16
:1006D000FACFE889F989808185FFF5CFCE010E94A4
:1006E0001203F1CFEB8DEC0FFD2FF11DE35AFF4FFD
:1006F000F0829FB7F8940B8FEA89FB898081806232
:10070000CFCFCF93DF93EC01888D8823B9F0AA89EE
:10071000BB89E889F9898C9185FD03C0808186FDBC
:100720000DC00FB607FCF7CF8C9185FFF2CF80810B
:1007300085FFEDCFCE010E941203E9CFDF91CF916B
:10074000089580E090E0892B29F00E940803811130
:100750000E94000080E090E0892B49F080E090E06A
:10076000892B29F00E94000081110E94000080E086
:1007700090E0892B49F080E090E0892B29F00E94DD
:10078000000081110E94000080E090E0892B49F078
:1007900080E090E0892B29F00E94000081110C94E8
:1007A00000000895AF92BF92CF92DF92EF92FF9236
:1007B0000F931F93CF93DF936B017A01EC01C85E17
:1007C000DD4F28813CE0389F8001399F100D1124B6
:1007D000A0905403B12C27FF1FC0FB01118210828F
:1007E00088818F5F888388819801280F311D87FD5C
:1007F0003A95F6012A153B051CF488818C30C4F12A
:1008000080819181049680349C4908F473C0F6017C
:1008100080819181049670C088819801280F311DD4
:1008200087FD3A952A153B05DCF68881A801480F1B
:10083000511D87FD5A95FA01EE0FFF1FE40FF51FBA
:10084000EC53FD4F808186FFCBCF8881F801E80F04
:10085000F11D87FDFA95CF01EE0FFF1FE80FF91F7D
:10086000EC53FD4F808160E08F730E944B02B8CF44
:10087000808191812881A801420F511D27FD5A9541
:100880009A01FA01EE0FFF1FE20FF31FEC53FD4F29
:1008900021813281820F931FF701918380838881A8
:1008A0009801280F311D87FD3A95F901EE0FFF1FC2
:1008B000E20FF31FEC53FD4F808186FF22C0888139
:1008C000080F111D87FD1A95F801EE0FFF1FE00FAD
:1008D000F11FEC53FD4F808161E08F73DF91CF9169
:1008E0001F910F91FF90EF90DF90CF90BF90AF904E
:1008F0000C944B0280E49CE9F701918380838FEF95
:100900008883DF91CF911F910F91FF90EF90DF903F
:10091000CF90BF90AF9008951F920F920FB60F9295
:1009200011242F933F938F939F93AF93BF93809105
:100930001F0290912002A0912102B09122023091D9
:100940001E0223E0230F2D3758F50196A11DB11D7E
:1009500020931E0280931F0290932002A0932102F5
:10096000B09322028091230290912402A09125024B
:10097000B09126020196A11DB11D80932302909390
:100980002402A0932502B0932602BF91AF919F91BC
:100990008F913F912F910F900FBE0F901F90189540
:1009A00026E8230F0296A11DB11DD2CF1F920F92F0
:1009B0000FB60F9211240BB60F922F933F934F93C4
:1009C0005F936F937F938F939F93AF93BF93EF93B7
:1009D000FF9387E292E00E941203FF91EF91BF9193
:1009E000AF919F918F917F916F915F914F913F91C7
:1009F0002F910F900BBE0F900FBE0F901F90189568
:100A00001F920F920FB60F9211240BB60F922F93D5
:100A10008F939F93EF93FF93E0913702F091380209
:100A20008081E0913D02F0913E0282FD1DC09081E7
:100A3000809140028F5F8F7320914102821741F0B5
:100A4000E0914002F0E0E95DFD4F958F8093400218
:100A5000FF91EF919F918F912F910F900BBE0F906F
:100A60000FBE0F901F9018958081F2CF1F920F92AA
:100A70000FB60F9211240BB60F922F933F934F9303
:100A80005F936F937F938F939F93AF93BF93EF93F6
:100A9000FF9348E251E064E271E090E080E00E9460
:100AA000D203FF91EF91BF91AF919F918F917F9171
:100AB0006F915F914F913F912F910F900BBE0F90CF
:100AC0000FBE0F901F9018951F920F920FB60F92A6
:100AD00011240BB60F922F933F934F935F936F9315
:100AE0007F938F939F93AF93BF93EF93FF9348EAC6
:100AF00050E064EA70E083E090E00E94D203FF914E
:100B0000EF91BF91AF919F918F917F916F915F9185
:100B10004F913F912F910F900BBE0F900FBE0F90F2
:100B20001F9018951F920F920FB60F9211240BB6BB
:100B30000F922F933F934F935F936F937F938F9376
:100B40009F93AF93BF93EF93FF9348E950E064E91D
:100B500070E082E090E00E94D203FF91EF91BF919C
:100B6000AF919F918F917F916F915F914F913F9145
:100B70002F910F900BBE0F900FBE0F901F901895E6
:100B80001F920F920FB60F9211240BB60F922F9354
:100B90003F934F935F936F937F938F939F93AF9305
:100BA000BF93EF93FF9348E850E064E870E081E082
:100BB00090E00E94D203FF91EF91BF91AF919F917E
:100BC0008F917F916F915F914F913F912F910F90F6
:100BD0000BBE0F900FBE0F901F90189510922A0217
:100BE0001092290288EE93E0A0E0B0E080932B02FF
:100BF00090932C02A0932D02B0932E028AE092E0F3
:100C0000909328028093270285EC90E09093340221
:100C10008093330284EC90E0909336028093350207
:100C200080EC90E0909338028093370281EC90E062
:100C300090933A028093390282EC90E090933C02C8
:100C400080933B0286EC90E090933E0280933D02BD
:100C500010924002109241021092420210924302FE
:100C600080915403803398F491E0980F909354034B
:100C70008093550390E0FC01EE0FFF1FE80FF91F72
:100C8000EC53FD4F88EB9BE09283818308958FEFB7
:100C9000809355030895789484B5826084BD84B5AB
:100CA000816084BD85B5826085BD85B5816085BD67
:100CB00080916E00816080936E001092810080911F
:100CC00081008260809381008091810081608093A7
:100CD0008100809180008160809380008091B100CC
:100CE00084608093B1008091B00081608093B000F7
:100CF0008091910082608093910080919100816049
:100D00008093910080919000816080939000809109
:100D1000A10082608093A1008091A10081608093F6
:100D2000A1008091A00081608093A00080912101AA
:100D30008260809321018091210181608093210153
:100D40008091200181608093200180917A008460ED
:100D500080937A0080917A00826080937A008091FB
:100D60007A00816080937A0080917A008068809315
:100D70007A001092C100E0913702F091380282E0CF
:100D80008083E0913302F09134021082E0913502C9
:100D9000F09136028FEC808310923F02E0913B028B
:100DA000F0913C0286E08083E0913902F0913A02B2
:100DB000808180618083E0913902F0913A028081E4
:100DC00088608083E0913902F0913A0280818068E6
:100DD0008083E0913902F0913A0280818F7D808397
:100DE000C1EED1E0FE0124910BE911E0F8018491FC
:100DF0008823C9F090E0880F991FFC01E85BFE4F43
:100E0000A591B491FC01E458FE4F459154919FB7D0
:100E1000F8943C91822F809583238C93FA018081F2
:100E2000282B20839FBF80915503803308F069C031
:100E3000E4EEF1E02491EEE9F1E08491882399F069
:100E400090E0880F991FFC01E85BFE4FA591B491DB
:100E5000FC01E458FE4F859194918FB7F894EC9182
:100E6000E22BEC938FBF80915503282F30E0F901DE
:100E7000EE0FFF1FE20FF31FEC53FD4F9081907CAC
:100E80009860908310925603109257032CE0622FC3
:100E90000E949408829FB001112430E020E0AB0151
:100EA000420F531FFA01EE0FFF1FE40FF51FEC5323
:100EB000FD4F908196FD17C02F5F3F4F2C303105BD
:100EC00071F7813009F040C01092800082E0809379
:100ED00081001092850010928400B19A80916F0079
:100EE000826080936F00E09155038E2F90E0FC01AB
:100EF000EE0FFF1FE80FF91FEC53FD4F8081806458
:100F0000808380910002909101020E94680127E293
:100F1000822E22E0922EAA24A394B12CF401849173
:100F2000FE01E490F801F490F1103AC0109205022D
:100F3000109204028091020290910302019709F439
:100F400061C090E080E041C0823061F41092900076
:100F500080939100109295001092940088BB80932A
:100F60007100C1CF833069F41092A00082E08093B9
:100F7000A1001092A5001092A40089BB809372007A
:100F8000B2CF8111B0CF1092200182E08093210175
:100F900010922501109224018ABB80937300A3CF85
:100FA00081110E94E401EF2DF0E0EE0FFF1FEE59DA
:100FB000FE4FA591B4918C91E82209F4B7CFB0927D
:100FC0000502A092040281E090E0909303028093D6
:100FD000020287E292E00E94FC02892B51F087E234
:100FE00092E00E94DA0290930102809300020E9434
:100FF000680160911C0287E292E00E9434030E9423
:10100000A1038CCF0E9479022B013C0184E1C82E00
:10101000D12CE12CF12C0E94790264197509860902
:101020009709683E734081059105A8F3F1E0CF1A56
:10103000D108E108F10828EE420E23E0521E611C9F
:10104000711CC114D104E104F10429F780911C0240
:1010500090911D028095909590931D0280931C02A3
:1010600070CF052E97FB1EF400940E94480857FD90
:1010700007D00E94630807FC03D04EF40C94480884
:1010800050954095309521953F4F4F4F5F4F0895B4
:1010900090958095709561957F4F8F4F9F4F0895E4
:1010A0000E948508A59F900DB49F900DA49F800D70
:1010B000911D11240895B7FF0C9450080E94500808
:1010C000821B930B0895A1E21A2EAA1BBB1BFD01E4
:1010D0000DC0AA1FBB1FEE1FFF1FA217B307E40717
:1010E000F50720F0A21BB30BE40BF50B661F771F6F
:1010F000881F991F1A9469F760957095809590954F
:101100009B01AC01BD01CF010895A29FB001B39F27
:10111000C001A39F700D811D1124911DB29F700D00
:10112000811D1124911D0895991B79E004C0991F18
:10113000961708F0961B881F7A95C9F78095089531
:10114000EE0FFF1F881F8BBF0790F691E02D1994BB
:04115000F894FFCF41
:101154005A00010001000000000034039E02CB028B
:081164008103FC02DA02EE0235
:00000001FF
